:020000040800F2
:1000000000280020490B00081907000821070008F4
:100010002907000831070008390700080000000020
:100020000000000000000000000000005141000836
:100030004107000800000000314300087943000830
:10004000910B0008910B0008910B0008910B000820
:10005000910B0008910B0008910B0008910B000810
:10006000910B0008910B0008910B0008910B000800
:10007000910B0008910B0008910B0008910B0008F0
:10008000910B0008910B0008910B0008910B0008E0
:10009000910B0008910B0008910B0008910B0008D0
:1000A000910B0008910B0008910B0008910B0008C0
:1000B000910B00084D07000800000000910B00089C
:1000C000910B00080000000000000000910B0008E8
:1000D000000000006107000875070008000000002C
:1000E000910B0008910B0008910B00080000000024
:1000F0000000000000000000000000000000000000
:0C01000000000000000000005FF808F1A3
:1001100010B5054C237833B9044B13B10448AFF341
:1001200000800123237010BD60000020000000004B
:100130006C49000808B5034B1BB103490348AFF3F2
:10014000008008BD00000000640000206C49000829
:1001500080B485B000AFF860B9607A60FB68064A89
:100160001A60BB68054A1A607B6880221A6000BF6B
:100170001437BD4680BC70478C0000202C01002045
:10018000B0B596B000AF1D4B07F13C041D460FCD36
:100190000FC495E8070084E8070007F13C0300213D
:1001A000184603F00FF90346154A1360154B07F183
:1001B00020041D460FCD0FC495E8070084E8070012
:1001C00007F120030021184603F0FCF803460E4A0D
:1001D00013600E4B3C1D1D460FCD0FC495E8070064
:1001E00084E807003B1D0021184603F0EBF80346A6
:1001F000074A136000BF5837BD46B0BD904900089C
:1002000080000020B849000884000020E049000870
:100210008800002080B582B000AF7860012003F034
:100220001DF9FBE780B582B000AF7860012003F0D4
:1002300015F9FBE780B582B000AF7860254B7322DB
:100240001A70254B00221A70224B1B78623B112B2F
:1002500035D801A252F823F0A7020008BF02000817
:10026000BF020008BF020008A1020008BF02000888
:10027000BF020008BF020008BF020008BF0200085A
:10028000AD020008BF020008BF020008BF0200085C
:10029000BF020008BF020008B3020008B90200084C
:1002A00000F01CF90CE000F033F909E000F064F90B
:1002B00006E000F047F903E000F0F6F800E000BFC8
:1002C000054B1A78054B1B685A63012003F0C6F8EA
:1002D000BAE700BF7C0000207D00002078030020EA
:1002E00080B582B000AF78600A4B1B78312B04D800
:1002F000084B1A78084B1A7003E0064B1A78074B24
:100300001A7001220349064802F007FB00BF0837B4
:10031000BD4680BD2C0300207D0000207C00002015
:10032000C003002080B586B000AF07F108030022AB
:100330001A605A609A60DA60174B9B69164A43F05C
:1003400020039361144B9B6903F020037B607B685F
:10035000114B9B69104A43F0040393610E4B9B6958
:1003600003F004033B603B680022F0210B4800F0DF
:1003700051FFF023BB600123FB6000233B6102239C
:100380007B6107F108031946044800F0C7FD00BF70
:100390001837BD4680BD00BF001002400008014074
:1003A00080B500AF00F0F6FB00F020F8FFF7BAFFD1
:1003B00000F0F0F900F00AFB00F0DEFA0122074934
:1003C000074802F0AAFA01220649074802F0A5FAF6
:1003D000FFF7D6FE02F0EFFF00BFFDE72D03002080
:1003E000C00300202C0300200804002080B590B03A
:1003F00000AF07F1180328220021184604F0DEF9A7
:100400003B1D00221A605A609A60DA601A6101236B
:10041000BB614FF48033FB6100233B620123BB626D
:1004200002237B634FF48033BB634FF4E013FB6321
:1004300007F11803184600F005FF0346002B01D012
:1004400000F02CF80F237B600223BB600023FB60CD
:100450004FF480633B6100237B613B1D0221184602
:1004600001F072F90346002B01D000F017F800BF2D
:100470004037BD4680BD000080B582B000AF7860D7
:100480007B681B68044A934201D100F099FB00BFCE
:100490000837BD4680BD00BF0004004080B400AFF7
:1004A00072B600BF00BFFDE780B500AF002210218B
:1004B000094800F0AFFE00222021074800F0AAFE04
:1004C00000224021044800F0A5FE002280210248BD
:1004D00000F0A0FE00BF80BD0008014080B500AF65
:1004E00001224021094800F095FE002280210748A2
:1004F00000F090FE00221021044800F08BFE002244
:100500002021024800F086FE00BF80BD00080140A7
:1005100080B500AF00224021094800F07BFE012297
:100520008021074800F076FE00221021044800F0E8
:1005300071FE00222021024800F06CFE00BF80BD49
:100540000008014080B500AF01221021094800F0E9
:1005500061FE00222021074800F05CFE01224021BC
:10056000044800F057FE00228021024800F052FEAD
:1005700000BF80BD0008014080B500AF00221021FF
:10058000094800F047FE01222021074800F042FE02
:1005900001224021044800F03DFE00228021024853
:1005A00000F038FE00BF80BD0008014080B584B077
:1005B00000AF184B9B69174A43F001039361154B39
:1005C0009B6903F00103BB60BB68124BDB69114AF6
:1005D00043F08053D3610F4BDB6903F080537B60A2
:1005E0007B6800220F216FF0010000F0BAFB0A4B7C
:1005F0005B68FB60FB6823F0E063FB60FB6843F033
:100600000073FB60044AFB68536000BF1037BD46AF
:1006100080BD00BF001002400000014080B58EB0D8
:1006200000AF78600023FB620023BB62002387F8E1
:100630003330344BDB69334A43F00203D361314B2F
:10064000DB6903F00203FB60FB6807F1100207F1AE
:1006500014031146184601F0E7F93B6AFB62FB6A96
:10066000002B03D101F0B8F9786304E001F0B4F98C
:1006700003465B007B637B6B234AA2FB03239B0C3B
:10068000013BBB62214B224A1A60204B40F2E73209
:10069000DA601E4ABB6A53601C4B00221A611B4B76
:1006A00000229A60194B00229A61184801F00AFA58
:1006B000034687F8333097F83330002B1BD11348AB
:1006C00001F050FA034687F8333097F83330002BA7
:1006D00011D11D2000F061FB7B680F2B08D8002290
:1006E00079681D2000F03DFB0A4A7B68136002E038
:1006F000012387F8333097F8333018463837BD4632
:1007000080BD00BF0010024083DE1B433003002089
:10071000000400400400002080B400AF00BFFDE7EB
:1007200080B400AF00BFFDE780B400AF00BFFDE7BD
:1007300080B400AF00BFFDE780B400AF00BFFDE7AD
:1007400080B400AF00BFBD4680BC704780B500AF2D
:10075000024801F0ABFA00BF80BD00BF30030020AB
:1007600080B500AF024802F0FDF800BF80BD00BFB9
:10077000C003002080B500AF024802F0F3F800BFCC
:1007800080BD00BF0804002080B400AF00BFBD469C
:1007900080BC704780B596B000AF07F148030022D7
:1007A0001A605A609A60DA6007F1400300221A600A
:1007B0005A6007F1240300221A605A609A60DA60D6
:1007C0001A615A619A613B1D20220021184603F0EC
:1007D000F5FF3E4B3E4A1A603C4B47225A603B4B6A
:1007E00000229A60394B6322DA60384B00221A618A
:1007F000364B00225A61354B80229A61334801F012
:1008000061F90346002B01D0FFF748FE4FF48053F7
:10081000BB6407F1480319462C4801F011FC03465C
:10082000002B01D0FFF73AFE284801F0E7F9034614
:10083000002B01D0FFF732FE00233B6400237B64D2
:1008400007F140031946214801F05CFF0346002BE5
:1008500001D0FFF723FE60237B620023BB620023ED
:10086000FB6200233B6300237B630023BB63002305
:10087000FB6307F1240300221946144801F01EFB14
:100880000346002B01D0FFF709FE00237B60002305
:10089000BB600023FB6000233B6100237B614FF4BE
:1008A0000053BB6100233B623B1D1946074801F022
:1008B00081FF0346002B01D0FFF7F0FD034800F055
:1008C00027F800BF5837BD4680BD00BF7803002021
:1008D000002C014080B485B000AF78607B681B6855
:1008E000094A93420BD1094B9B69084A43F40063C0
:1008F0009361064B9B6903F40063FB60FB6800BFD8
:100900001437BD4680BC7047002C014000100240E7
:1009100080B588B000AF786007F1100300221A603C
:100920005A609A60DA607B681B68104A934218D15B
:100930000F4B9B690E4A43F0040393610C4B9B6978
:1009400003F00403FB60FB684FF480733B610223F8
:100950007B610223FB6107F110031946054800F093
:10096000DDFA00BF2037BD4680BD00BF002C01402E
:10097000001002400008014080B500AF114B124A40
:100980001A60104B4FF4E1325A600E4B00229A600D
:100990000C4B0022DA600B4B00221A61094B0C222F
:1009A0005A61084B00229A61064B0022DA61054821
:1009B00001F063FF0346002B01D0FFF76FFD00BF7E
:1009C00080BD00BFC00300200038014080B500AFEB
:1009D000114B124A1A60104B4FF416525A600E4BCC
:1009E00000229A600C4B0022DA600B4B00221A6145
:1009F000094B0C225A61084B00229A61064B0022D7
:100A0000DA61054801F039FF0346002B01D0FFF7FA
:100A100045FD00BF80BD00BF080400200044004029
:100A200080B58AB000AF786007F1180300221A6021
:100A30005A609A60DA607B681B683F4A93423AD1F9
:100A40003E4B9B693D4A43F4804393613B4B9B691A
:100A500003F480437B617B69384B9B69374A43F0E1
:100A600004039361354B9B6903F004033B613B69CD
:100A70004FF40073BB610223FB6103237B6207F128
:100A8000180319462E4800F049FA4FF48063BB6101
:100A90000023FB6100233B6207F118031946284835
:100AA00000F03CFA00220521252000F05AF925200B
:100AB00000F073F93CE07B681B68224A934237D10F
:100AC0001E4BDB691D4A43F40033D3611B4BDB69CA
:100AD00003F40033FB60FB68184B9B69174A43F033
:100AE00004039361154B9B6903F00403BB60BB686F
:100AF0000423BB610223FB6103237B6207F118031C
:100B000019460F4800F00AFA0823BB610023FB6175
:100B100000233B6207F118031946094800F0FEF96B
:100B200000220521262000F01CF9262000F035F9CE
:100B300000BF2837BD4680BD00380140001002408C
:100B40000008014000440040FFF71EFE0B480C491E
:100B50000C4A002302E0D458C4500433C4188C4219
:100B6000F9D3094A094C002301E013600432A24280
:100B7000FBD303F081FEFFF713FC70470000002059
:100B800060000020384A000860000020E0120020C9
:100B9000FEE7000080B500AF084B1B68074A43F032
:100BA00010031360032000F0D1F80F20FFF736FD8B
:100BB000FFF7FCFC0023184680BD00BF0020024068
:100BC00080B400AF054B1B781A46054B1B681344D5
:100BD000034A136000BFBD4680BC70470800002078
:100BE0005004002080B400AF024B1B681846BD467D
:100BF00080BC70475004002080B485B000AF78609E
:100C00007B6803F00703FB600C4BDB68BB60BA68D2
:100C10004FF6FF031340BB60FB681A02BB68134327
:100C200043F0BF6343F40033BB60044ABB68D36046
:100C300000BF1437BD4680BC704700BF00ED00E028
:100C400080B400AF044BDB681B0A03F007031846AF
:100C5000BD4680BC704700BF00ED00E080B483B0AB
:100C600000AF0346FB7197F90730002B0BDBFB79D4
:100C700003F01F02064997F907305B09012000FACB
:100C800002F241F8232000BF0C37BD4680BC7047FC
:100C900000E100E080B483B000AF03463960FB712F
:100CA00097F90730002B0ADB3B68DAB20C4997F959
:100CB00007301201D2B20B4483F800230AE03B68EC
:100CC000DAB20849FB7903F00F03043B1201D2B2F8
:100CD0000B441A7600BF0C37BD4680BC704700BF7E
:100CE00000E100E000ED00E080B489B000AFF86002
:100CF000B9607A60FB6803F00703FB61FB69C3F12D
:100D00000703042B28BF0423BB61FB690433062BB4
:100D100002D9FB69033B00E000237B614FF0FF3207
:100D2000BB6902FA03F3DA43BB681A407B699A4055
:100D30004FF0FF317B6901FA03F3D9437B680B4025
:100D4000134318462437BD4680BC704780B582B037
:100D500000AF78607868FFF74FFF00BF0837BD46E7
:100D600080BD80B586B000AF0346B9607A60FB7382
:100D700000237B61FFF764FF78617A68B96878695E
:100D8000FFF7B2FF024697F90F3011461846FFF7FA
:100D900081FF00BF1837BD4680BD80B582B000AF6F
:100DA0000346FB7197F907301846FFF757FF00BF5E
:100DB0000837BD4680BD80B485B000AF78600023A1
:100DC000FB737B6893F82130DBB2022B08D07B6881
:100DD00004229A637B68002283F82020012320E00C
:100DE0007B681B681A687B681B6822F00E021A6019
:100DF0007B681B681A687B681B6822F001021A6016
:100E00007B681A6C7B68DB6B012101FA02F25A6085
:100E10007B68012283F821207B68002283F8202050
:100E2000FB7B18461437BD4680BC704780B584B044
:100E300000AF78600023FB737B6893F82130DBB24E
:100E4000022B05D07B6804229A630123FB7351E0D7
:100E50007B681B681A687B681B6822F00E021A60A8
:100E60007B681B681A687B681B6822F001021A60A5
:100E70007B681B68224A934229D07B681B68214A01
:100E8000934222D07B681B681F4A93421AD07B682A
:100E90001B681E4A934212D07B681B681C4A93420F
:100EA0000AD07B681B681B4A934202D14FF480131F
:100EB0000EE04FF080730BE04FF4803308E04FF406
:100EC000805305E04FF4807302E0102300E001231B
:100ED000114A53607B68012283F821207B6800223D
:100EE00083F820207B685B6B002B03D07B685B6BF7
:100EF00078689847FB7B18461037BD4680BD00BF19
:100F0000080002401C000240300002404400024041
:100F1000580002406C0002400000024080B48BB0D8
:100F200000AF7860396000237B6200233B6261E19F
:100F300001227B6A02FA03F3FB613B681B68FA69D2
:100F40001340BB61BA69FB699A4240F050813B682B
:100F50005B68974A93425ED0954A934275D8954A0A
:100F6000934258D0934A93426FD8934A934252D0B7
:100F7000914A934269D8914A93424CD08F4A934206
:100F800063D88F4A934246D08D4A93425DD8122B44
:100F90002AD8122B59D801A252F823F017100008B2
:100FA000F10F000803100008451000084B1000085E
:100FB0004B1000084B1000084B1000084B100008A5
:100FC0004B1000084B1000084B1000084B10000895
:100FD0004B1000084B1000084B1000084B10000885
:100FE000F90F00080D100008764A934213D02CE048
:100FF0003B68DB683B6229E03B68DB6804333B62AB
:1010000024E03B68DB6808333B621FE03B68DB6839
:101010000C333B621AE03B689B68002B02D104232F
:101020003B6213E03B689B68012B05D108233B62C0
:101030007B68FA691A6109E008233B627B68FA69F8
:101040005A6103E000233B6200E000BFBB69FF2B55
:1010500001D87B6801E07B6804337B61BB69FF2BAF
:1010600002D87B6A9B0002E07B6A083B9B003B61E5
:101070007B691A680F213B6901FA03F3DB431A40CD
:10108000396A3B6901FA03F31A437B691A603B68CA
:101090005B6803F08053002B00F0A9804A4B9B69EA
:1010A000494A43F001039361474B9B6903F00103F5
:1010B000BB60BB68454A7B6A9B08023352F8233009
:1010C000FB607B6A03F003039B000F2202FA03F329
:1010D000DB43FA681340FB607B683D4A93420DD0C6
:1010E0007B683C4A934207D07B683B4A934201D1DC
:1010F000022304E0032302E0012300E000237A6AD4
:1011000002F0030292009340FA681343FB602F49F8
:101110007B6A9B080233FA6841F823203B685B68CE
:1011200003F48013002B06D02C4B9A682B49BB6923
:1011300013438B6006E0294B9A68BB69DB43274960
:1011400013408B603B685B6803F40013002B06D0F0
:10115000224BDA682149BB691343CB6006E01F4B81
:10116000DA68BB69DB431D491340CB603B685B68B1
:1011700003F40033002B06D0184B5A681749BB699B
:1011800013434B6006E0154B5A68BB69DB431349B8
:1011900013404B603B685B6803F48033002B1FD027
:1011A0000E4B1A680D49BB6913430B601FE000BF6B
:1011B0000000321000003110000022100000211049
:1011C0000000121000001110001002400000014049
:1011D00000080140000C01400010014000040140E3
:1011E0000B4B1A68BB69DB43094913400B607B6AF0
:1011F00001337B623B681A687B6A22FA03F3002B97
:101200007FF496AE00BF00BF2C37BD4680BC704750
:101210000004014080B483B000AF78600B467B804F
:1012200013467B707B78002B03D07A887B681A6129
:1012300003E07B881A047B681A6100BF0C37BD4647
:1012400080BC704780B586B000AF78607B68002BAB
:1012500001D1012372E27B681B6803F00103002BBC
:1012600000F08780924B5B6803F00C03042B0CD0DA
:101270008F4B5B6803F00C03082B12D18C4B5B681F
:1012800003F48033B3F5803F0BD1894B1B6803F423
:101290000033002B6CD07B685B68002B68D1012386
:1012A0004CE27B685B68B3F5803F06D1804B1B68DE
:1012B0007F4A43F4803313602EE07B685B68002B29
:1012C0000CD17B4B1B687A4A23F480331360784B34
:1012D0001B68774A23F4802313601DE07B685B68FA
:1012E000B3F5A02F0CD1724B1B68714A43F48023D5
:1012F00013606F4B1B686E4A43F4803313600BE03E
:101300006B4B1B686A4A23F480331360684B1B687D
:10131000674A23F4802313607B685B68002B13D03B
:10132000FFF760FC386108E0FFF75CFC02463B69B0
:10133000D31A642B01D9032300E25D4B1B6803F42D
:101340000033002BF0D014E0FFF74CFC386108E0CC
:10135000FFF748FC02463B69D31A642B01D90323EB
:10136000ECE1534B1B6803F40033002BF0D100E099
:1013700000BF7B681B6803F00203002B63D04C4B5B
:101380005B6803F00C03002B0BD0494B5B6803F048
:101390000C03082B1CD1464B5B6803F48033002BF5
:1013A00016D1434B1B6803F00203002B05D07B686A
:1013B0001B69012B01D00123C0E13D4B1B6823F0C9
:1013C000F8027B685B69DB00394913430B603AE044
:1013D0007B681B69002B20D0364B01221A60FFF777
:1013E00001FC386108E0FFF7FDFB02463B69D31AB8
:1013F000022B01D90323A1E12D4B1B6803F002034B
:10140000002BF0D02A4B1B6823F0F8027B685B6945
:10141000DB00274913430B6015E0264B00221A60BE
:10142000FFF7E0FB386108E0FFF7DCFB02463B69B1
:10143000D31A022B01D9032380E11D4B1B6803F053
:101440000203002BF0D17B681B6803F00803002B1C
:101450003AD07B689B69002B19D0174B01221A6088
:10146000FFF7C0FB386108E0FFF7BCFB02463B69B1
:10147000D31A022B01D9032360E10D4B5B6A03F001
:101480000203002BF0D0012000F0FEFA1CE00A4B12
:1014900000221A60FFF7A6FB38610FE0FFF7A2FBFE
:1014A00002463B69D31A022B08D9032346E100BF49
:1014B000001002400000424280044242924B5B6AAC
:1014C00003F00203002BE9D17B681B6803F00403DF
:1014D000002B00F0A6800023FB758B4BDB6903F02B
:1014E0008053002B0DD1884BDB69874A43F0805332
:1014F000D361854BDB6903F08053BB60BB6801237C
:10150000FB75824B1B6803F48073002B18D17F4B53
:101510001B687E4A43F480731360FFF763FB3861F6
:1015200008E0FFF75FFB02463B69D31A642B01D941
:10153000032303E1754B1B6803F48073002BF0D089
:101540007B68DB68012B06D16F4B1B6A6E4A43F048
:10155000010313622DE07B68DB68002B0CD16A4B22
:101560001B6A694A23F001031362674B1B6A664AD0
:1015700023F0040313621CE07B68DB68052B0CD1AD
:10158000614B1B6A604A43F0040313625E4B1B6AA3
:101590005D4A43F0010313620BE05B4B1B6A5A4A3E
:1015A00023F001031362584B1B6A574A23F00403CC
:1015B00013627B68DB68002B15D0FFF713FB3861E3
:1015C0000AE0FFF70FFB02463B69D31A41F288326B
:1015D000934201D90323B1E04B4B1B6A03F0020392
:1015E000002BEED014E0FFF7FDFA38610AE0FFF7B8
:1015F000F9FA02463B69D31A41F28832934201D983
:1016000003239BE0404B1B6A03F00203002BEED147
:10161000FB7D012B05D13C4BDB693B4A23F080531A
:10162000D3617B68DB69002B00F08780364B5B68F9
:1016300003F00C03082B61D07B68DB69022B46D1D9
:10164000334B00221A60FFF7CDFA386108E0FFF74C
:10165000C9FA02463B69D31A022B01D903236DE074
:10166000294B1B6803F00073002BF0D17B681B6AC9
:10167000B3F5803F08D1244B5B6823F400327B68CC
:101680009B68214913434B601F4B5B6823F4741222
:101690007B68196A7B685B6A0B431B4913434B6089
:1016A0001B4B01221A60FFF79DFA386108E0FFF733
:1016B00099FA02463B69D31A022B01D903233DE074
:1016C000114B1B6803F00073002BF0D035E0104B7A
:1016D00000221A60FFF786FA386108E0FFF782FA05
:1016E00002463B69D31A022B01D9032326E0064B9D
:1016F0001B6803F00073002BF0D11EE07B68DB69F0
:10170000012B07D1012319E00010024000700040B6
:10171000600042420B4B5B68FB60FB6803F4803265
:101720007B681B6A9A4206D1FB6803F470127B68DF
:101730005B6A9A4201D0012300E000231846183763
:10174000BD4680BD0010024080B584B000AF786017
:1017500039607B68002B01D10123D0E06A4B1B6804
:1017600003F007033A689A4210D9674B1B6823F0CD
:10177000070265493B6813430B60634B1B6803F02A
:1017800007033A689A4201D00123B8E07B681B68DE
:1017900003F00203002B20D07B681B6803F00403D6
:1017A000002B05D0594B5B68584A43F4E063536003
:1017B0007B681B6803F00803002B05D0534B5B6864
:1017C000524A43F460535360504B5B6823F0F0027D
:1017D0007B689B684D4913434B607B681B6803F033
:1017E0000103002B40D07B685B68012B07D1474B7E
:1017F0001B6803F40033002B15D101237FE07B68C5
:101800005B68022B07D1414B1B6803F00073002B70
:1018100009D1012373E03D4B1B6803F00203002B49
:1018200001D101236BE0394B5B6823F003027B6835
:101830005B68364913434B60FFF7D4F9F8600AE060
:10184000FFF7D0F90246FB68D31A41F2883293427F
:1018500001D9032353E02D4B5B6803F00C027B6836
:101860005B689B009A42EBD1274B1B6803F0070390
:101870003A689A4210D2244B1B6823F0070222498F
:101880003B6813430B60204B1B6803F007033A6867
:101890009A4201D0012332E07B681B6803F0040305
:1018A000002B08D0194B5B6823F4E0627B68DB688F
:1018B000164913434B607B681B6803F00803002B39
:1018C00009D0124B5B6823F460527B681B69DB0014
:1018D0000E4913434B6000F021F802460B4B5B6846
:1018E0001B0903F00F030A49CB5C22FA03F3094AF0
:1018F0001360094B1B681846FEF790FE002318463C
:101900001037BD4680BD00BF0020024000100240DD
:10191000044A0008000000200400002080B487B0C2
:1019200000AF0023FB600023BB6000237B6100232A
:101930007B6000233B611E4B5B68FB60FB6803F030
:101940000C03042B02D0082B03D027E0194B3B617A
:1019500027E0FB689B0C03F00F03174AD35C7B6006
:10196000FB6803F48033002B10D0114B5B685B0CD9
:1019700003F00103114AD35CBB607B680D4A03FB93
:1019800002F2BB68B2FBF3F37B6104E07B680C4AB4
:1019900002FB03F37B617B693B6102E0054B3B612A
:1019A00000BF3B6918461C37BD4680BC704700BF6E
:1019B0000010024000127A001C4A00082C4A00085D
:1019C00000093D0080B400AF024B1B681846BD46BD
:1019D00080BC70470000002080B500AFFFF7F2FF29
:1019E0000246054B5B681B0A03F007030349CB5C07
:1019F00022FA03F3184680BD00100240144A000882
:101A000080B500AFFFF7DEFF0246054B5B68DB0ADF
:101A100003F007030349CB5C22FA03F3184680BDA9
:101A200000100240144A000880B483B000AF786010
:101A300039607B680F221A60114B5B6803F0030268
:101A40007B685A600E4B5B6803F0F0027B689A601B
:101A50000B4B5B6803F4E0627B68DA60084B5B6801
:101A6000DB0803F4E0627B681A61064B1B6803F035
:101A700007023B681A6000BF0C37BD4680BC704748
:101A8000001002400020024080B485B000AF7860B2
:101A90000A4B1B680A4AA2FB03235B0A7A6802FB13
:101AA00003F3FB6000BFFB685A1EFA60002BF9D1FC
:101AB00000BF00BF1437BD4680BC70470000002047
:101AC000D34D621080B582B000AF78607B68002B88
:101AD00001D1012341E07B6893F83D30DBB2002B5C
:101AE00006D17B68002283F83C207868FEF7F2FE7E
:101AF0007B68022283F83D207B681A687B68043388
:101B00001946104600F088FB7B68012283F84620C6
:101B10007B68012283F83E207B68012283F83F2006
:101B20007B68012283F840207B68012283F84120F2
:101B30007B68012283F842207B68012283F84320DE
:101B40007B68012283F844207B68012283F84520CA
:101B50007B68012283F83D20002318460837BD46E4
:101B600080BD000080B485B000AF78607B6893F8DA
:101B70003D30DBB2012B01D0012335E07B6802222E
:101B800083F83D207B681B68DA687B681B6842F03D
:101B90000102DA607B681B68164A934209D07B68B1
:101BA0001B68B3F1804F04D07B681B68124A9342D4
:101BB00011D17B681B689B6803F00703FB60FB681F
:101BC000062B10D07B681B681A687B681B6842F084
:101BD00001021A6007E07B681B681A687B681B6853
:101BE00042F001021A60002318461437BD4680BC3B
:101BF000704700BF002C01400004004080B582B057
:101C000000AF78607B68002B01D1012341E07B6845
:101C100093F83D30DBB2002B06D17B68002283F8BD
:101C20003C20786800F039F87B68022283F83D2078
:101C30007B681A687B6804331946104600F0ECFA9A
:101C40007B68012283F846207B68012283F83E20CE
:101C50007B68012283F83F207B68012283F84020C3
:101C60007B68012283F841207B68012283F84220AF
:101C70007B68012283F843207B68012283F844209B
:101C80007B68012283F845207B68012283F83D2090
:101C9000002318460837BD4680BD80B483B000AF2E
:101CA000786000BF0C37BD4680BC704780B582B0FD
:101CB00000AF78607B681B681B6903F00203022B8E
:101CC00022D17B681B68DB6803F00203022B1BD167
:101CD0007B681B686FF002021A617B6801221A7729
:101CE0007B681B689B6903F00303002B03D07868B3
:101CF00000F076FA05E0786800F069FA786800F09C
:101D000078FA7B6800221A777B681B681B6903F0EE
:101D10000403042B22D17B681B68DB6803F00403F7
:101D2000042B1BD17B681B686FF004021A617B686F
:101D300002221A777B681B689B6903F44073002BAF
:101D400003D0786800F04CFA05E0786800F03FFABC
:101D5000786800F04EFA7B6800221A777B681B686F
:101D60001B6903F00803082B22D17B681B68DB6822
:101D700003F00803082B1BD17B681B686FF0080277
:101D80001A617B6804221A777B681B68DB6903F0A1
:101D90000303002B03D0786800F022FA05E078688E
:101DA00000F015FA786800F024FA7B6800221A77B0
:101DB0007B681B681B6903F01003102B22D17B6822
:101DC0001B68DB6803F01003102B1BD17B681B68BA
:101DD0006FF010021A617B6808221A777B681B6813
:101DE000DB6903F44073002B03D0786800F0F8F946
:101DF00005E0786800F0EBF9786800F0FAF97B68A4
:101E000000221A777B681B681B6903F00103012B12
:101E10000ED17B681B68DB6803F00103012B07D13F
:101E20007B681B686FF001021A617868FEF724FB7B
:101E30007B681B681B6903F08003802B0ED17B68D5
:101E40001B68DB6803F08003802B07D17B681B686D
:101E50006FF080021A61786800F006FD7B681B68ED
:101E60001B6903F04003402B0ED17B681B68DB68C5
:101E700003F04003402B07D17B681B686FF04002E2
:101E80001A61786800F0BEF97B681B681B6903F073
:101E90002003202B0ED17B681B68DB6803F0200336
:101EA000202B07D17B681B686FF020021A617868CD
:101EB00000F0D1FC00BF0837BD4680BD80B586B0BC
:101EC00000AFF860B9607A600023FB75FB6893F897
:101ED0003C30012B01D10223AEE0FB68012283F8E4
:101EE0003C207B680C2B00F29F8001A252F823F06B
:101EF000251F0008292000082920000829200008A3
:101F0000651F000829200008292000082920000852
:101F1000A71F000829200008292000082920000800
:101F2000E71F0008FB681B68B968184600F0CCF989
:101F3000FB681B689A69FB681B6842F008029A619B
:101F4000FB681B689A69FB681B6822F004029A61AF
:101F5000FB681B689969BB681A69FB681B680A43C0
:101F60009A6164E0FB681B68B968184600F012FAD1
:101F7000FB681B689A69FB681B6842F400629A61FF
:101F8000FB681B689A69FB681B6822F480629A618F
:101F9000FB681B689969BB681B691A02FB681B68B0
:101FA0000A439A6143E0FB681B68B968184600F071
:101FB0005BFAFB681B68DA69FB681B6842F0080281
:101FC000DA61FB681B68DA69FB681B6822F00402AF
:101FD000DA61FB681B68D969BB681A69FB681B6812
:101FE0000A43DA6123E0FB681B68B968184600F011
:101FF000A5FAFB681B68DA69FB681B6842F400629B
:10200000DA61FB681B68DA69FB681B6822F480628E
:10201000DA61FB681B68D969BB681B691A02FB6837
:102020001B680A43DA6102E00123FB7500BFFB680D
:10203000002283F83C20FB7D18461837BD4680BD42
:1020400080B584B000AF786039600023FB737B6893
:1020500093F83C30012B01D10223B4E07B680122CC
:1020600083F83C207B68022283F83D207B681B6854
:102070009B68BB60BB6823F07703BB60BB6823F43D
:102080007F43BB607B681B68BA689A603B681B68CB
:10209000B3F5005F3ED0B3F5005F00F28780B3F583
:1020A000805F00F08680B3F5805F7FD8702B1AD0F8
:1020B000702B7BD8602B50D0602B77D8502B3CD026
:1020C000502B73D8402B58D0402B6FD8302B64D076
:1020D000302B6BD8202B60D0202B67D8002B5CD006
:1020E000102B5AD062E07B6818683B6899683B689F
:1020F0005A683B68DB6800F0E6FA7B681B689B68FF
:10210000BB60BB6843F07703BB607B681B68BA6841
:102110009A604FE07B6818683B6899683B685A682A
:102120003B68DB6800F0CFFA7B681B689A687B68C5
:102130001B6842F480429A603CE07B6818683B6808
:1021400059683B68DB681A4600F046FA7B681B68F2
:102150005021184600F09DFA2CE07B6818683B6817
:1021600059683B68DB681A4600F064FA7B681B68B4
:102170006021184600F08DFA1CE07B6818683B6807
:1021800059683B68DB681A4600F026FA7B681B68D2
:102190004021184600F07DFA0CE07B681A683B6825
:1021A0001B681946104600F074FA03E00123FB7324
:1021B00000E000BF7B68012283F83D207B6800229D
:1021C00083F83C20FB7B18461037BD4680BD80B4A9
:1021D00083B000AF786000BF0C37BD4680BC70474D
:1021E00080B483B000AF786000BF0C37BD4680BCC0
:1021F000704780B483B000AF786000BF0C37BD4635
:1022000080BC704780B483B000AF786000BF0C37EB
:10221000BD4680BC7047000080B485B000AF7860D8
:1022200039607B681B68FB607B68254A934207D056
:102230007B68B3F1804F03D07B68224A934208D178
:10224000FB6823F07003FB603B685B68FA6813432C
:10225000FB607B681A4A934207D07B68B3F1804FDA
:1022600003D07B68174A934208D1FB6823F440737C
:10227000FB603B68DB68FA681343FB60FB6823F094
:1022800080023B685B691343FB607B68FA681A60F5
:102290003B689A687B68DA623B681A687B689A6276
:1022A0007B68074A934203D13B681A697B681A63CB
:1022B0007B6801225A6100BF1437BD4680BC70475D
:1022C000002C01400004004080B487B000AF78606B
:1022D00039607B681B6A7B617B681B6A23F00102A3
:1022E0007B681A627B685B683B617B689B69FB600B
:1022F000FB6823F07003FB60FB6823F00303FB60C3
:102300003B681B68FA681343FB607B6923F0020398
:102310007B613B689B687A6913437B617B681C4ADD
:1023200093420CD17B6923F008037B613B68DB6837
:102330007A6913437B617B6923F004037B617B68CB
:10234000134A934211D13B6923F480733B613B698B
:1023500023F400733B613B685B693A6913433B615B
:102360003B689B693A6913433B617B683A695A60F1
:102370007B68FA689A613B685A687B685A637B6835
:102380007A691A6200BF1C37BD4680BC704700BF27
:10239000002C014080B487B000AF786039607B6862
:1023A0001B6A7B617B681B6A23F010027B681A62E0
:1023B0007B685B683B617B689B69FB60FB6823F41F
:1023C000E043FB60FB6823F44073FB603B681B68E1
:1023D0001B02FA681343FB607B6923F020037B61D7
:1023E0003B689B681B017A6913437B617B681D4ACC
:1023F00093420DD17B6923F080037B613B68DB68EE
:102400001B017A6913437B617B6923F040037B6185
:102410007B68144A934213D13B6923F480633B6188
:102420003B6923F400633B613B685B699B003A694D
:1024300013433B613B689B699B003A6913433B61D3
:102440007B683A695A607B68FA689A613B685A68A7
:102450007B689A637B687A691A6200BF1C37BD4645
:1024600080BC7047002C014080B487B000AF78601A
:1024700039607B681B6A7B617B681B6A23F480720E
:102480007B681A627B685B683B617B68DB69FB6029
:10249000FB6823F07003FB60FB6823F00303FB6021
:1024A0003B681B68FA681343FB607B6923F4007385
:1024B0007B613B689B681B027A6913437B617B6885
:1024C0001D4A93420DD17B6923F400637B613B6815
:1024D000DB681B027A6913437B617B6923F48063A9
:1024E0007B617B68144A934213D13B6923F4805388
:1024F0003B613B6923F400533B613B685B691B0113
:102500003A6913433B613B689B691B013A6913437A
:102510003B617B683A695A607B68FA68DA613B68BC
:102520005A687B68DA637B687A691A6200BF1C3775
:10253000BD4680BC704700BF002C014080B487B00E
:1025400000AF786039607B681B6A3B617B681B6AFF
:1025500023F480527B681A627B685B687B617B68CE
:10256000DB69FB60FB6823F4E043FB60FB6823F45A
:102570004073FB603B681B681B02FA681343FB60F7
:102580003B6923F400533B613B689B681B033A693A
:1025900013433B617B680F4A934209D17B6923F463
:1025A00080437B613B685B699B017A6913437B6174
:1025B0007B687A695A607B68FA68DA613B685A68B6
:1025C0007B681A647B683A691A6200BF1C37BD4693
:1025D00080BC7047002C014080B487B000AFF86029
:1025E000B9607A60FB681B6A7B61FB681B6A23F039
:1025F0000102FB681A62FB689B693B613B6923F03F
:10260000F0033B617B681B013A6913433B617B69C3
:1026100023F00A037B617A69BB6813437B61FB6823
:102620003A699A61FB687A691A6200BF1C37BD4635
:1026300080BC704780B487B000AFF860B9607A6042
:10264000FB681B6A7B61FB681B6A23F01002FB6856
:102650001A62FB689B693B613B6923F470433B61F1
:102660007B681B033A6913433B617B6923F0A0033A
:102670007B61BB681B017A6913437B61FB683A6924
:102680009A61FB687A691A6200BF1C37BD4680BC3C
:10269000704780B485B000AF786039607B689B6814
:1026A000FB60FB6823F07003FB603A68FB68134330
:1026B00043F00703FB607B68FA689A6000BF143739
:1026C000BD4680BC704780B487B000AFF860B96089
:1026D0007A603B60FB689B687B617B6923F47F4386
:1026E0007B613B681A027B681A43BB6813437A69B3
:1026F00013437B61FB687A699A6000BF1C37BD4653
:1027000080BC704780B485B000AF786039607B686A
:1027100093F83C30012B01D1022341E07B68012278
:1027200083F83C207B68022283F83D207B681B688D
:102730005B68FB607B681B689B68BB60FB6823F081
:102740007003FB603B681B68FA681343FB607B689F
:102750001B68FA685A607B681B68144A934209D068
:102760007B681B68B3F1804F04D07B681B68104AFC
:1027700093420CD1BB6823F08003BB603B685B686D
:10278000BA681343BB607B681B68BA689A607B6851
:10279000012283F83D207B68002283F83C2000233F
:1027A00018461437BD4680BC704700BF002C01405E
:1027B0000004004080B485B000AF78603960002329
:1027C000FB607B6893F83C30012B01D102233DE094
:1027D0007B68012283F83C20FB6823F0FF023B6802
:1027E000DB681343FB60FB6823F440723B689B6823
:1027F0001343FB60FB6823F480623B685B68134310
:10280000FB60FB6823F400623B681B681343FB60BA
:10281000FB6823F480523B681B691343FB60FB6831
:1028200023F400523B685B691343FB60FB6823F4AD
:1028300080423B68DB691343FB607B681B68FA6876
:102840005A647B68002283F83C2000231846143722
:10285000BD4680BC704780B483B000AF786000BFD5
:102860000C37BD4680BC704780B483B000AF786041
:1028700000BF0C37BD4680BC704780B582B000AF4A
:1028800078607B68002B01D1012342E07B6893F8DC
:102890004130DBB2002B06D17B68002283F8402058
:1028A0007868FEF7BDF87B68242283F841207B68B6
:1028B0001B68DA687B681B6822F40052DA6078686B
:1028C00000F0D4FC7B681B681A697B681B6822F4E3
:1028D00090421A617B681B685A697B681B6822F00A
:1028E0002A025A617B681B68DA687B681B6842F4BD
:1028F0000052DA607B6800225A647B68202283F8E9
:1029000041207B68202283F842207B6800225A63A2
:10291000002318460837BD4680BD80B584B000AF9F
:10292000F860B9601346FB80FB6893F84230DBB275
:10293000202B12D1BB68002B02D0FB88002B01D1C9
:1029400001230BE0FB6800221A63FB881A46B96872
:10295000F86800F0B6FA034600E002231846103784
:10296000BD4680BD80B5BAB000AF78607B681B689B
:102970001B68C7F8E4307B681B68DB68C7F8E03089
:102980007B681B685B69C7F8DC300023C7F8D83068
:102990000023C7F8D430D7F8E43003F00F03C7F8AA
:1029A000D830D7F8D830002B0FD1D7F8E43003F067
:1029B0002003002B09D0D7F8E03003F02003002BD0
:1029C00003D0786800F093FB5BE2D7F8D830002B97
:1029D00000F0DE80D7F8DC3003F00103002B06D1D5
:1029E000D7F8E03003F49073002B00F0D180D7F8D3
:1029F000E43003F00103002B0BD0D7F8E03003F4F0
:102A00008073002B05D07B685B6C43F001027B6810
:102A10005A64D7F8E43003F00403002B0BD0D7F846
:102A2000DC3003F00103002B05D07B685B6C43F0C6
:102A300002027B685A64D7F8E43003F00203002BEB
:102A40000BD0D7F8DC3003F00103002B05D07B68F6
:102A50005B6C43F004027B685A64D7F8E43003F0FF
:102A60000803002B11D0D7F8E03003F02003002B2F
:102A700005D1D7F8DC3003F00103002B05D07B68CB
:102A80005B6C43F008027B685A647B685B6C002BCC
:102A900000F0F281D7F8E43003F02003002B08D0D7
:102AA000D7F8E03003F02003002B02D0786800F064
:102AB0001EFB7B681B685B6903F04003002B14BF9F
:102AC00001230023DBB2C7F8D4307B685B6C03F0D2
:102AD0000803002B03D1D7F8D430002B4FD07868EF
:102AE00000F028FA7B681B685B6903F04003002B49
:102AF00041D07B681B681433C7F89C30D7F89C30F2
:102B000053E8003FC7F89830D7F8983023F04003D7
:102B1000C7F8D0307B681B681433D7F8D020C7F8CB
:102B2000A820C7F8A430D7F8A410D7F8A82041E807
:102B30000023C7F8A030D7F8A030002BD9D17B688C
:102B4000DB6B002B13D07B68DB6B7E4A5A637B68A0
:102B5000DB6B1846FEF76AF90346002B16D07B683C
:102B6000DB6B5B6B7A68D26B104698470EE0786837
:102B700000F093F90AE0786800F08FF906E07868D1
:102B800000F08BF97B6800225A6475E100BF73E1A5
:102B90007B681B6B012B40F04F81D7F8E43003F0CA
:102BA0001003002B00F04881D7F8E03003F0100349
:102BB000002B00F041810023BB607B681B681B6811
:102BC000BB607B681B685B68BB60BB687B681B681D
:102BD0005B6903F04003002B00F0B6807B68DB6B81
:102BE0001B685B68A7F8BE30B7F8BE30002B00F05A
:102BF00045817B689B8DB7F8BE209A4280F03E816C
:102C00007B68B7F8BE20DA857B68DB6B9B69202B7D
:102C100000F088807B681B680C33C7F88830D7F8D1
:102C2000883053E8003FC7F88430D7F8843023F465
:102C30008073C7F8B8307B681B680C33D7F8B820AE
:102C4000C7F89420C7F89030D7F89010D7F89420A0
:102C500041E80023C7F88C30D7F88C30002BD9D14D
:102C60007B681B6814337B677B6F53E8003F3B67CF
:102C70003B6F23F00103C7F8B4307B681B68143343
:102C8000D7F8B420C7F88020FB67F96FD7F8802009
:102C900041E80023BB67BB6F002BE1D17B681B6859
:102CA00014333B663B6E53E8003FFB65FB6D23F03E
:102CB0004003C7F8B0307B681B681433D7F8B020E6
:102CC000FA66BB66B96EFA6E41E800237B667B6EDE
:102CD000002BE3D17B68202283F842207B6800220E
:102CE0001A637B681B680C33FB64FB6C53E8003F82
:102CF000BB64BB6C23F01003C7F8AC307B681B6867
:102D00000C33D7F8AC20BA657B65796DBA6D41E8B4
:102D100000233B653B6D002BE3D17B68DB6B1846E2
:102D2000FEF749F87B6802225A637B689A8D7B68BC
:102D3000DB8D9BB2D31A9BB21946786800F0B6F8C7
:102D40009CE000BFF92F00087B689A8D7B68DB8DC3
:102D50009BB2D31AA7F8CE307B68DB8D9BB2002BD9
:102D600000F08E80B7F8CE30002B00F089807B68B1
:102D70001B680C33BB63BB6B53E8003F7B637B6B0F
:102D800023F49073C7F8C8307B681B680C33D7F8FE
:102D9000C8207A643B64396C7A6C41E80023FB6399
:102DA000FB6B002BE3D17B681B6814337B627B6A6F
:102DB00053E8003F3B623B6A23F00103C7F8C4308D
:102DC0007B681B681433D7F8C4203A63FB62F96A46
:102DD0003A6B41E80023BB62BB6A002BE3D17B68FE
:102DE000202283F842207B6800221A637B681B68DC
:102DF0000C333B613B6953E8003FFB60FB6823F009
:102E00001003C7F8C0307B681B680C33D7F8C020AC
:102E1000FA61BB61B969FA6941E800237B617B69AA
:102E2000002BE3D17B6802225A63B7F8CE301946F3
:102E3000786800F03BF823E0D7F8E43003F0800333
:102E4000002B09D0D7F8E03003F08003002B03D02B
:102E5000786800F0E5F814E0D7F8E43003F04003B8
:102E6000002B0ED0D7F8E03003F04003002B08D041
:102E7000786800F024F904E000BF02E000BF00E041
:102E800000BFE837BD4680BD80B483B000AF786036
:102E900000BF0C37BD4680BC704780B483B000AF24
:102EA000786000BF0C37BD4680BC704780B483B0EB
:102EB00000AF78600B467B8000BF0C37BD4680BCFE
:102EC000704780B485B000AFF860B9601346FB80EE
:102ED000FB68BA689A62FB68FA889A85FB68FA8888
:102EE000DA85FB6800225A64FB68222283F84220BC
:102EF000FB681B69002B07D0FB681B68DA68FB685E
:102F00001B6842F48072DA60FB681B685A69FB68D0
:102F10001B6842F001025A61FB681B68DA68FB68B3
:102F20001B6842F02002DA60002318461437BD46C1
:102F300080BC704780B495B000AF78607B681B6838
:102F40000C337B637B6B53E8003F3B633B6B23F4A9
:102F50009073FB647B681B680C33FA6C3A64FB6308
:102F6000F96B3A6C41E80023BB63BB6B002BE5D1E6
:102F70007B681B6814333B623B6A53E8003FFB618C
:102F8000FB6923F00103BB647B681B681433BA6CD4
:102F9000FA62BB62B96AFA6A41E800237B627B6A23
:102FA000002BE5D17B681B6B012B19D17B681B685B
:102FB0000C33FB60FB6853E8003FBB60BB6823F049
:102FC00010037B647B681B680C337A6CBA617B618D
:102FD0007969BA6941E800233B613B69002BE5D17F
:102FE0007B68202283F842207B6800221A6300BF9E
:102FF0005437BD4680BC704780B584B000AF786060
:103000007B685B6AFB60FB680022DA85FB68002254
:10301000DA84F868FFF741FF00BF1037BD4680BD76
:1030200080B485B000AF78607B6893F84130DBB244
:10303000212B3ED17B689B68B3F5805F14D17B6800
:103040001B69002B10D17B681B6AFB60FB681B8827
:103050001A467B681B68C2F308025A607B681B6AC9
:103060009A1C7B681A6208E07B681B6A591C7A68A4
:1030700011621A787B681B685A607B68DB8C9BB294
:10308000013B9BB27A681946D184002B0FD17B6833
:103090001B68DA687B681B6822F08002DA607B6854
:1030A0001B68DA687B681B6842F04002DA60002324
:1030B00000E0022318461437BD4680BC704780B537
:1030C00082B000AF78607B681B68DA687B681B6839
:1030D00022F04002DA607B68202283F84120786881
:1030E000FFF7D2FE002318460837BD4680BD80B5E5
:1030F0008CB000AF78607B6893F84230DBB2222B53
:1031000040F0AE807B689B68B3F5805F17D17B6829
:103110001B69002B13D10023FB627B689B6ABB6297
:103120007B681B685B689BB2C3F308039AB2BB6AF7
:103130001A807B689B6A9A1C7B689A6226E07B688F
:103140009B6AFB620023BB627B689B68B3F5805F70
:1031500007D07B689B68002B0AD17B681B69002B1A
:1031600006D17B681B685B68DAB2FB6A1A7008E0FC
:103170007B681B685B68DBB203F07F03DAB2FB6A33
:103180001A707B689B6A5A1C7B689A627B68DB8D2D
:103190009BB2013B9BB27A681946D185002B5DD169
:1031A0007B681B68DA687B681B6822F02002DA60A3
:1031B0007B681B68DA687B681B6822F48072DA60BF
:1031C0007B681B685A697B681B6822F001025A61A0
:1031D0007B68202283F842207B6800225A637B6848
:1031E0001B6B012B35D17B6800221A637B681B683F
:1031F0000C337B617B6953E8003F3B613B6923F003
:1032000010037B627B681B680C337A6A3A62FB614D
:10321000F9693A6A41E80023BB61BB69002BE5D13B
:103220007B681B681B6803F01003102B0AD1002376
:10323000FB607B681B681B68FB607B681B685B68C6
:10324000FB60FB687B689B8D19467868FFF72EFE54
:1032500002E07868FDF744F8002302E0002300E074
:10326000022318463037BD4680BD000080B584B0CB
:1032700000AF78607B681B681B6923F440517B6852
:10328000DA687B681B680A431A617B689A687B6806
:103290001B691A437B685B691343BB607B681B68CF
:1032A000DB6823F4B05323F00C037A681268B96822
:1032B0000B43D3607B681B685B6923F440717B68B8
:1032C0009A697B681B680A435A617B681B682C4AB1
:1032D000934203D1FEF794FBF86002E0FEF77CFB1B
:1032E000F860FA6813469B0013449A001A447B68FE
:1032F0005B689B00B2FBF3F3224AA2FB03235B094A
:103300001901FA6813469B0013449A001A447B681B
:103310005B689B00B2FBF3F21A4BA3FB02035B0951
:10332000642000FB03F3D31A1B013233154AA2FBBE
:1033300003235B0903F0F0031944FA6813469B006A
:1033400013449A001A447B685B689B00B2FBF3F25B
:103350000C4BA3FB02035B09642000FB03F3D31AAD
:103360001B013233074AA2FB03235B0903F00F0260
:103370007B681B680A449A6000BF1037BD4680BD59
:10338000003801401F85EB5180B485B000AF034683
:10339000FB800023FB60B7F90630842B05D0B7F91A
:1033A0000620FB6813440333FB60FB6818461437A0
:1033B000BD4680BC704780B500AF00F0EFFA002337
:1033C000184680BDF0B589B004AF786039607B687D
:1033D0005B69002B20D07B689B69002B1CD07B682D
:1033E0005C687B681D687B681E697B68B3F9083080
:1033F0001846FFF7C9FF01467B685B697A689269E6
:103400000292019300913B6832462946204600F023
:10341000E8F80346FB601CE07B685C687B681D681D
:103420007B681B699EB27B68B3F908301846FFF7CA
:10343000ABFF024607F10C03019300923B68324652
:103440002946204600F02CF90346012B01D0002329
:1034500000E0FB6818461437BD46F0BD80B584B067
:1034600000AF78607B68FB60FB68002B01D0FB68D5
:1034700000E00123184600F05BFA002318461037DD
:10348000BD4680BD80B483B000AF78607B6803F137
:1034900008027B685A607B684FF0FF329A607B6855
:1034A00003F108027B68DA607B6803F108027B683D
:1034B0001A617B6800221A6000BF0C37BD4680BCD1
:1034C000704780B483B000AF78607B6800221A61D7
:1034D00000BF0C37BD4680BC704780B485B000AFDC
:1034E000786039607B685B68FB603B68FA685A60AB
:1034F000FB689A683B689A60FB689B683A685A6008
:10350000FB683A689A603B687A681A617B681B6856
:103510005A1C7B681A6000BF1437BD4680BC7047D8
:1035200080B485B000AF786039603B681B68BB60D1
:10353000BB68B3F1FF3F03D17B681B69FB600CE004
:103540007B680833FB6002E0FB685B68FB60FB683C
:103550005B681B68BA689A42F6D2FB685A683B6897
:103560005A603B685B683A689A603B68FA689A60A0
:10357000FB683A685A603B687A681A617B681B6826
:103580005A1C7B681A6000BF1437BD4680BC704768
:1035900080B485B000AF78607B681B69FB607B6896
:1035A0005B687A6892689A607B689B687A68526800
:1035B0005A60FB685B687A689A4203D17B689A68B4
:1035C000FB685A607B6800221A61FB681B685A1E00
:1035D000FB681A60FB681B6818461437BD4680BC40
:1035E000704780B58EB004AFF860B9607A603B6018
:1035F0007B6B002B0BD14FF0500383F31188BFF38B
:103600006F8FBFF34F8F3B6200BF00BFFDE7BB6B07
:10361000002B0BD14FF0500383F31188BFF36F8F52
:10362000BFF34F8FFB6100BF00BFFDE7A0233B61ED
:103630003B69A02B0BD04FF0500383F31188BFF3ED
:103640006F8FBFF34F8FBB6100BF00BFFDE7BB6B48
:10365000002B1ED07B6B002B1BD0BB6B7B627B6A6D
:103660007A6B1A637B6A022283F89D2000230393FE
:103670007B6A029307F1140301933B6B00933B6851
:103680007A68B968F86800F051F8786A00F0E6F8EE
:1036900001E000237B617B6918462837BD4680BD69
:1036A00080B58CB004AFF860B9603B601346FB8016
:1036B000FB889B00184600F0A3FE78617B69002B15
:1036C0000ED0A02000F09CFEF861FB69002B03D017
:1036D000FB697A691A6305E0786900F059FF01E037
:1036E0000023FB61FB69002B17D0FB69002283F8E4
:1036F0009D20FA8800230393FB690293FB6A0193E0
:10370000BB6A00933B68B968F86800F00FF8F86985
:1037100000F0A4F80123BB6102E04FF0FF33BB616E
:10372000BB6918462037BD4680BD000080B588B013
:1037300000AFF860B9607A603B603B6B1A6B7B68E6
:1037400003F18043013B9B001344BB61BB6923F041
:103750000703BB61BB6903F00703002B0BD04FF0DD
:10376000500383F31188BFF36F8FBFF34F8F7B61DB
:1037700000BF00BFFDE70023FB6112E0BA68FB69F0
:10378000134419783A6BFB69134434330A461A70B0
:10379000BA68FB6913441B78002B06D0FB69013320
:1037A000FB61FB690F2BE9D900E000BF3B6B0022F6
:1037B00083F84320BB6A062B01D90623BB623B6B0F
:1037C000BA6ADA623B6BBA6A5A643B6B00229A644B
:1037D0003B6B04331846FFF774FE3B6B18331846F7
:1037E000FFF76FFE3B6B3A6B1A61BB6AC3F10702CE
:1037F0003B6B9A613B6B3A6B5A623B6B0022C3F89E
:1038000098203B6B002283F89C203B6B4C334C226E
:103810000021184600F0D2FF3B6B0D4A1A653B6B46
:103820000C4A5A653B6B0C4A9A653A68F968B86964
:1038300000F030FC02463B6B1A60FB6A002B02D0A2
:10384000FB6A3A6B1A6000BF2037BD4680BD00BFDF
:10385000A0110020081200207012002080B582B054
:1038600000AF786000F00AFD2A4B1B680133294A3B
:103870001360294B1B68002B09D1274A7B68136012
:10388000244B1B68012B10D100F0D6FA0DE0234B1E
:103890001B68002B09D1204B1B68DA6A7B68DB6A46
:1038A0009A4202D81C4A7B6813601D4B1B68013387
:1038B0001B4A13607B68DB6A01229A40194B1B6824
:1038C0001343184A13607B68DA6A13469B0013445B
:1038D0009B00154A1A447B68043319461046FFF7CB
:1038E000FCFD00F0FBFC0D4B1B68002B0ED00A4BBF
:1038F0001B68DA6A7B68DB6A9A4207D20B4B4FF08F
:1039000080521A60BFF34F8FBFF36F8F00BF08372D
:10391000BD4680BD540500205404002060050020F1
:10392000700500205C0500205804002004ED00E034
:1039300080B584B000AF78600023FB607B68002B0B
:1039400018D0144B1B68002B0BD04FF0500383F39F
:103950001188BFF36F8FBFF34F8FBB6000BF00BFF5
:10396000FDE700F085F80021786800F02DFB00F0FD
:103970008DF8F860FB68002B07D1074B4FF08052A1
:103980001A60BFF34F8FBFF36F8F00BF1037BD4674
:1039900080BD00BF7C05002004ED00E080B58AB04A
:1039A00004AF0023BB6000237B603A46391D07F15A
:1039B00008031846FCF7CCFB39687B68BA680292AA
:1039C00001930023009300230A4621492148FFF771
:1039D00008FE0346204A13601F4B1B68002B02D0D1
:1039E00001237B6101E000237B617B69012B1BD1FB
:1039F0004FF0500383F31188BFF36F8FBFF34F8FE6
:103A00003B6100BF154B1B684C33154A1360154BC7
:103A10004FF0FF321A60144B01221A60134B002240
:103A20001A6000F0B9FB0FE07B69B3F1FF3F0BD1E7
:103A30004FF0500383F31188BFF36F8FBFF34F8FA5
:103A4000FB6000BF00BFFDE700BF1837BD4680BD6B
:103A5000FC490008093E00087805002054040020B5
:103A6000100000207405002060050020580500208B
:103A700080B400AF044B1B680133034A136000BFDE
:103A8000BD4680BC704700BF7C05002080B584B077
:103A900000AF0023FB600023BB60424B1B68002B80
:103AA0000BD14FF0500383F31188BFF36F8FBFF337
:103AB0004F8F3B6000BF00BFFDE700F0DFFB394BDD
:103AC0001B68013B374A1360364B1B68002B61D1E2
:103AD000354B1B68002B5DD02EE0344BDB68DB6878
:103AE000FB60FB6818331846FFF752FDFB68043390
:103AF0001846FFF74DFDFB68DB6A01229A402C4B0C
:103B00001B6813432A4A1360FB68DA6A13469B005A
:103B100013449B00274A1A44FB6804331946104695
:103B2000FFF7DBFCFB68DA6A234B1B68DB6A9A420F
:103B300002D3224B01221A601C4B1B68002BCCD1F4
:103B4000FB68002B01D000F01BFA1D4B1B687B604B
:103B50007B68002B10D000F037F80346002B02D012
:103B6000164B01221A607B68013B7B607B68002B4F
:103B7000F1D1134B00221A60104B1B68002B09D0A7
:103B80000123BB600F4B4FF080521A60BFF34F8F81
:103B9000BFF36F8F00F0A2FBBB6818461037BD461D
:103BA00080BD00BF7C0500205405002014050020C6
:103BB0005C05002058040020540400206805002003
:103BC0006405002004ED00E080B586B000AF00235E
:103BD0007B61514B1B68002B40F08E804F4B1B6864
:103BE00001333B614D4A3B6913603B69002B21D196
:103BF0004B4B1B681B68002B0BD04FF0500383F31B
:103C00001188BFF36F8FBFF34F8F3B6000BF00BFC2
:103C1000FDE7434B1B68FB60424B1B68404A136047
:103C2000404AFB681360404B1B6801333E4A1360F7
:103C300000F0A6F93D4B1B683A699A424DD3384BC8
:103C40001B681B68002B01D1012300E00023002B1F
:103C500004D0364B4FF0FF321A603EE0304B1B6809
:103C6000DB68DB68BB60BB685B687B603A697B686C
:103C70009A4203D22D4A7B6813602EE0BB6804335E
:103C80001846FFF785FCBB689B6A002B04D0BB6815
:103C900018331846FFF77CFCBB68DB6A01229A40A8
:103CA000234B1B681343224A1360BB68DA6A13462E
:103CB0009B0013449B001F4A1A44BB6804331946F7
:103CC0001046FFF70AFCBB68DA6A1B4B1B68DB6A0D
:103CD0009A42B4D301237B61B1E7174B1B68DA6AC0
:103CE000144913469B0013449B000B441B68012B93
:103CF00007D901237B6104E0104B1B6801330F4A95
:103D000013600F4B1B68002B01D001237B617B6983
:103D100018461837BD4680BD7C0500205805002098
:103D20000C050020100500206C0500207405002003
:103D30005C05002058040020540400206405002085
:103D40006805002080B487B000AF294B1B68002BAA
:103D500003D0284B01221A6045E0264B00221A604E
:103D6000254B1B68FB60FB68B3FA83F3FB72FB7A9D
:103D7000C3F11F037B6121497A6913469B001344F9
:103D80009B000B441B68002B0BD14FF0500383F3B7
:103D90001188BFF36F8FBFF34F8F7B6000BF00BFF1
:103DA000FDE77A6913469B0013449B00134A1344B2
:103DB0003B613B695B685A683B695A603B695A687A
:103DC0003B6908339A4204D13B695B685A683B6996
:103DD0005A603B695B68DB68094A1360084B1B68E3
:103DE0004C33084A136000BF1C37BD4680BC704787
:103DF0007C050020680500205C0500205804002098
:103E0000540400201000002080B582B000AF78601C
:103E100000F052F8064B1B68012BF9D9054B4FF007
:103E200080521A60BFF34F8FBFF36F8FF0E700BF70
:103E30005804002004ED00E080B582B000AF0023FC
:103E40007B600CE07A6813469B0013449B00124A87
:103E500013441846FFF716FB7B6801337B607B68D1
:103E6000062BEFD90D48FFF70DFB0D48FFF70AFBB6
:103E70000C48FFF707FB0C48FFF704FB0B48FFF764
:103E800001FB0B4B054A1A600A4B054A1A6000BF3A
:103E90000837BD4680BD00BF58040020E404002060
:103EA000F80400201405002028050020400500200B
:103EB0000C0500201005002080B582B000AF19E08D
:103EC00000F0DCF9104BDB68DB687B607B68043357
:103ED0001846FFF75DFB0D4B1B68013B0B4A136057
:103EE0000B4B1B68013B0A4A136000F0F7F9786836
:103EF00000F010F8064B1B68002BE1D100BF00BF9B
:103F00000837BD4680BD00BF2805002054050020AD
:103F10003C05002080B584B000AF78607B684C33EE
:103F2000184600F053FC7B6893F89D30002B08D1B5
:103F30007B681B6B184600F02BFB786800F028FBB1
:103F400019E07B6893F89D30012B03D1786800F06D
:103F50001FFB10E07B6893F89D30022B0BD04FF0D5
:103F6000500383F31188BFF36F8FBFF34F8FFB6054
:103F700000BF00BFFDE700BF1037BD4680BD000099
:103F800080B483B000AF0E4B1B681B68002B01D1BF
:103F9000012300E00023002B04D00A4B4FF0FF3236
:103FA0001A6008E0064B1B68DB68DB687B607B6897
:103FB0005B68044A136000BF0C37BD4680BC704785
:103FC0000C0500207405002080B584B000AF786037
:103FD0003960294B1B68FB60284B1B68043318466B
:103FE000FFF7D6FA0346002B0BD1244B1B68DB6A84
:103FF000012202FA03F3DA43214B1B681340204AE3
:1040000013607B68B3F1FF3F0AD13B68002B07D0F8
:104010001A4B1B68043319461A48FFF75EFA26E06C
:10402000FA687B681344BB60144B1B68BA685A601B
:10403000BA68FB689A4209D2134B1A680F4B1B6887
:10404000043319461046FFF76BFA10E00F4B1A685D
:104050000A4B1B68043319461046FFF761FA0C4BF4
:104060001B68BA689A4202D2094ABB68136000BF53
:104070001037BD4680BD00BF580500205404002005
:104080005C05002040050020100500200C050020E4
:104090007405002080B485B000AFF860B9607A6024
:1040A000FB68043BFB60FB684FF080721A60FB68A2
:1040B000043BFB60BB6823F00102FB681A60FB68ED
:1040C000043BFB60084AFB681A60FB68143BFB601A
:1040D0007A68FB681A60FB68203BFB60FB68184647
:1040E0001437BD4680BC7047ED40000880B485B0F1
:1040F00000AF00237B60124B1B68B3F1FF3F0BD076
:104100004FF0500383F31188BFF36F8FBFF34F8FCE
:10411000FB6000BF00BFFDE74FF0500383F3118841
:10412000BFF36F8FBFF34F8FBB6000BF00BF7B68D3
:10413000002BFCD000BF00BF1437BD4680BC7047C9
:104140000C00002000000000000000000000000043
:10415000074B19680868B0E8F00F80F30988BFF3CF
:104160006F8F4FF0000080F311884EF00D0E7047F6
:104170005404002000BF00BF06480068006880F3B8
:10418000088862B661B6BFF34F8FBFF36F8F00DF51
:1041900000BF00BF08ED00E080B584B000AF324B37
:1041A000FB60FB681B78DBB27B60FB68FF221A7048
:1041B000FB681B78DBB2FB70FB78DBB203F05003CB
:1041C000DAB22A4B1A702A4B07221A6009E0284BF0
:1041D0001B68013B264A1360FB78DBB25B00DBB255
:1041E000FB70FB78DBB203F08003802BEFD0204B19
:1041F0001B68C3F10703042B0BD04FF0500383F36C
:104200001188BFF36F8FBFF34F8FBB6000BF00BF3C
:10421000FDE7174B1B681B02154A1360144B1B6804
:1042200003F4E063124A13607B68DAB2FB681A7029
:10423000104B1B680F4A43F4700313600D4B1B684F
:104240000C4A43F07043136000F0B8F80A4B0022A8
:104250001A60FFF791FFFFF775FDFFF747FF002397
:1042600018461037BD4680BD00E400E08005002000
:104270008405002020ED00E00C00002080B483B015
:1042800000AF4FF0500383F31188BFF36F8FBFF37C
:104290004F8F7B6000BF0F4B1B6801330D4A1360CB
:1042A0000C4B1B68012B10D10B4B1B68DBB2002B96
:1042B0000BD04FF0500383F31188BFF36F8FBFF320
:1042C0004F8F3B6000BF00BFFDE700BF0C37BD460E
:1042D00080BC70470C00002004ED00E080B483B087
:1042E00000AF124B1B68002B0BD14FF0500383F330
:1042F0001188BFF36F8FBFF34F8F7B6000BF00BF8C
:10430000FDE70A4B1B68013B084A1360074B1B681B
:10431000002B05D100233B603B6883F3118800BF6D
:1043200000BF0C37BD4680BC704700BF0C000020AA
:10433000EFF30980BFF36F8F0D4B1A6820E9F00F80
:1043400010602DE908404FF0500080F31188FFF70E
:10435000F9FC4FF0000080F31188BDE808401968AF
:104360000868B0E8F00F80F30988BFF36F8F7047DB
:104370005404002000BF00BF80B582B000AF4FF0F2
:10438000500383F31188BFF36F8FBFF34F8F7B60B0
:1043900000BFFFF719FC0346002B03D0064B4FF07C
:1043A00080521A6000233B603B6883F3118800BF92
:1043B00000BF0837BD4680BD04ED00E080B400AF0B
:1043C0000A4B00221A600A4B00221A60094B1B6834
:1043D000094AA2FB03239B09084A013B1360034BD4
:1043E00007221A6000BFBD4680BC704710E000E0A5
:1043F00018E000E000000020D34D621014E000E05F
:1044000080B58AB000AF78600023FB61FFF730FB16
:104410005A4B1B68002B01D100F016F9584B1A6853
:104420007B681340002B40F090807B68002B1ED0EF
:1044300008227B6813447B607B6803F00703002B32
:1044400015D07B6823F0070308337B607B6803F09B
:104450000703002B0BD04FF0500383F31188BFF3F9
:104460006F8FBFF34F8F7B6100BF00BFFDE77B689D
:10447000002B6AD0434B1B687A689A4265D8424B3E
:104480003B62414B1B687B6204E07B6A3B627B6A58
:104490001B687B627B6A5B687A689A4203D97B6A95
:1044A0001B68002BF1D1354B1B687A6A9A424CD0BD
:1044B0003B6A1B6808221344FB617B6A1A683B6AEB
:1044C0001A607B6A5A687B68D21A08235B009A429A
:1044D00020D97A6A7B681344BB61BB6903F0070388
:1044E000002B0BD04FF0500383F31188BFF36F8F75
:1044F000BFF34F8F3B6100BF00BFFDE77B6A5A6887
:104500007B68D21ABB695A607B6A7A685A60B8695C
:1045100000F0FCF81B4B1A687B6A5B68D31A194AD7
:104520001360184B1A68194B1B689A4203D2154B3B
:104530001B68164A13607B6A5A68114B1B681A4342
:104540007B6A5A607B6A00221A60FFF79FFAFB6958
:1045500003F00703002B0BD04FF0500383F31188B7
:10456000BFF36F8FBFF34F8FFB6000BF00BFFDE74E
:10457000FB6918462837BD4680BD00BF901100205A
:104580009C11002094110020881100209811002017
:1045900080B586B000AF78607B687B617B68002B5C
:1045A0004AD008235B427A6913447B617B693B6193
:1045B0003B695A68224B1B681340002B0BD14FF00C
:1045C000500383F31188BFF36F8FBFF34F8FFB60EE
:1045D00000BF00BFFDE73B691B68002B0BD04FF00D
:1045E000500383F31188BFF36F8FBFF34F8FBB600E
:1045F00000BF00BFFDE73B695A68114B1B681340C1
:10460000002B19D03B691B68002B15D13B695A68F8
:104610000B4B1B68DB431A403B695A60FFF728FAD3
:104620003B695A68074B1B681344064A1360386994
:1046300000F06CF8FFF72AFA00BF1837BD4680BDBE
:104640009C1100209411002080B485B000AF4FF47D
:104650004063BB60274BFB60FB6803F00703002B44
:104660000CD0FB680733FB60FB6823F00703FB609B
:10467000BA68FB68D31A1F4A1344BB60FB687B60AF
:104680001D4A7B6813601C4B00225A607B68BA6825
:104690001344FB600822FB689B1AFB60FB6823F055
:1046A0000703FB60FB68154A1360144B1B6800226C
:1046B0005A60124B1B6800221A607B683B603B68A3
:1046C000FA68D21A3B685A600C4B1A683B681A6049
:1046D0003B685B680A4A13603B685B68094A136081
:1046E000094B4FF000421A6000BF1437BD4680BC32
:1046F000704700BF8805002088110020901100201D
:1047000098110020941100209C11002080B485B0E5
:1047100000AF7860274BFB6002E0FB681B68FB6022
:10472000FB681B687A689A42F7D8FB68BB60FB6835
:104730005B68BA6813447A689A4208D1FB685A6881
:104740007B685B681A44FB685A60FB687B607B6827
:10475000BB607B685B68BA681A44FB681B689A4256
:1047600018D1FB681A68144B1B689A420DD07B68FD
:104770005A68FB681B685B681A447B685A60FB6870
:104780001B681A687B681A6008E00B4B1A687B6824
:104790001A6003E0FB681A687B681A60FA687B6835
:1047A0009A4202D0FB687A681A6000BF1437BD468F
:1047B00080BC7047881100209011002003460244FD
:1047C000934200D1704703F8011BF9E7294B70B5FC
:1047D0001B68044683424BD0C369ABB1DB686BB145
:1047E0000025E369DB68595900293BD10435802D48
:1047F000F7D1E3692046D96800F064F8E3691968E5
:1048000011B1204600F05EF8616911B1204600F058
:1048100059F8E16911B1204600F054F8216B11B14B
:10482000204600F04FF8616B11B1204600F04AF8C5
:10483000A16B11B1204600F045F8A16C11B12046E2
:1048400000F040F8616C11B1204600F03BF8E16ADD
:1048500011B1204600F036F8236A4BB12046BDE87E
:10486000704018470E68204600F02CF83146BBE730
:1048700070BD00BF1000002070B500260C4D0D4C1F
:10488000641BA410A64209D100F070F800260A4D5E
:104890000A4C641BA410A64205D170BD55F8043B18
:1048A00098470136EEE755F8043B98470136F2E7A2
:1048B000304A0008304A0008304A0008344A0008EC
:1048C0007047704738B50546002940D051F8043C80
:1048D0000C1F002BB8BFE41800F03CF81C4A13680A
:1048E00033B9636014602846BDE8384000F038B83A
:1048F000A34208D9206821188B4201BF19685B6860
:1049000009182160EDE71A465B680BB1A342FAD99A
:1049100011685018A0420BD12068014450188342FE
:104920001160E0D118685B68084410605360DAE7F2
:1049300002D90C232B60D6E7206821188B4201BFD7
:1049400019685B680918216063605460CBE738BD63
:10495000DC1200200148FFF7B3BF00BFD8120020CF
:104960000148FFF7AEBF00BFD8120020F8B500BF66
:10497000F8BC08BC9E467047F8B500BFF8BC08BC40
:044980009E46704798
:1049840064656661756C745461736B0084490008D6
:1049940015020008FDFF0000000000008000000078
:1049A40000000000000000006D795461736B303228
:1049B40000000000AC4900082502000802000000C5
:1049C4000000000080000000000000000000000063
:1049D4006D795461736B303400000000D4490008D1
:1049E4003502000803000000000000008000000001
:1049F400000000000000000049444C450000000095
:104A0400000000000000000001020304060708097A
:104A1400000000000102030402030405060708095C
:0C4A24000A0B0C0D0E0F10100102000018
:044A30003501000844
:044A34001101000864
:104A38000024F4001000000001000000AAAAAAAA9D
:104A48001400002000000000A0110020081200201F
:104A580070120020000000000000000000000000AC
:104A6800000000000000000000000000000000003E
:104A7800000000000000000000000000000000002E
:104A8800000000000000000000000000000000001E
:0400000508000B499B
:00000001FF
